:10000000001000207901000075010000A507000024
:100010007501000075010000750100007501000008
:1000200075010000750100005425000075010000F5
:1000300075010000942500007501000075010000A5
:1000400075010000750100007501000075010000D8
:1000500075010000750100007501000075010000C8
:1000600075010000750100007501000075010000B8
:1000700075010000750100007501000075010000A8
:100080007501000075010000750100007501000098
:100090007501000075010000750100007501000088
:1000A0007501000075010000750100007501000078
:1000B0007501000075010000750100007501000068
:1000C0007501000075010000750100007501000058
:1000D0007501000075010000750100007501000048
:1000E0007501000075010000750100007501000038
:1000F0007501000075010000750100007501000028
:100100007501000075010000750100007501000017
:100110007501000075010000750100007501000007
:1001200075010000750100007501000075010000F7
:100130007501000010B5054C237833B9044B13B199
:10014000044800E000BF0123237010BD60100020B0
:10015000000000004826000008B5034B1BB103490E
:10016000034800E000BF08BD00000000641000204C
:1001700048260000FEE7000008B500F021F800F076
:1001800083FB0A4B0A4A0B498B4206D300210A4BD8
:100190000A4A934206D300F009FB52F8040B43F8D5
:1001A000040BF1E743F8041BF3E700BF0010002045
:1001B0004826000060100020601000200813002076
:1001C000044B054A9A60D3F8882042F47002C3F8C1
:1001D0008820704700ED00E0000000000179012256
:1001E0000431033000F08EBD00F0DABC00B5C3B0BE
:1001F00000F053FCB0F5027F17D14FF48472002158
:10020000684602F080F9A0238DF8033002238DF8B0
:10021000043001238DF8063046238DF80730002383
:1002200068468DF80830FFF7D9FF4FF4847200213B
:10023000684602F068F9A0238DF8033004238DF896
:10024000043000239B6A68469B68CDF80730FFF7AF
:10025000C5FF43B05DF804FB70B5ADF5896D4FF493
:100260008472002189A802F04EF9022320248DF81F
:1002700028326D4B04AD0FCB85E80F002C220021F6
:100280000DEB04008DF8274202F03DF9FF234FF4F7
:100290008E720021CBA88DF8213002F034F968224B
:1002A000002113A802F02FF9682200212DA802F0E6
:1002B0002AF923462DAA13A9CBA800F075FF002622
:1002C0004FF48472002147A802F01DF94FF47A74AC
:1002D00000F050FD0028FBD001230094194603AA2A
:1002E0000DF21F1000F06AFD9DF81F31202BEFD199
:1002F00001230321009403AA48A800F05FFD002811
:10030000DED1039B032BDBD19DF8204174B140F675
:10031000B8332146009303AA01230DF2231000F005
:100320004DFD0028CCD1039B9C42C9D19DF82131C1
:10033000002B5CD19DF82241022C0DD0032C1FD044
:10034000012CBDD18DF82A428DF82B328DF82C323C
:1003500089A8FFF743FFB3E79DF82331009549AA29
:1003600008A9CBA800F058FF8DF82A4228B141F225
:100370000703984214BF46200020ADF82B02E7E7A0
:100380009DF822308DF82A427BB39DF82330002B54
:100390000CBF4623002389A8ADF82B32FFF71EFFC0
:1003A0009DF82230002B8BD09DF82330002B87D076
:1003B0009DF820305A0707D5129800F095F918B12A
:1003C0004FF4004000F0BAF99DF820309B077FF50C
:1003D00077AFB36A099A9B689A427FF671AF119919
:1003E0004FF4004000F03EF96AE74623D3E7012BC3
:1003F0007FF466AF9DF82231012B7FF461AF9DF849
:1004000022303BB19DF8233023B940F2032000F0A5
:100410001BFB55E79DF82331012B0CBF40F2022056
:1004200040F20120F3E700BF3025000070474FF095
:1004300098435A6CD202FCD5586D00F47020704776
:10044000C0F30C032DE9F04105460F4616460BB9E3
:1004500000F027FB05F5005424F4FF5424F01F049A
:1004600005EB0608A04507D8324639462846BDE8C0
:10047000F041022300F01CBB204600F012FB04F503
:100480000054EFE770B40025AD6A03462E6986423A
:1004900006D86C6913449C4202D370BCFFF7D0BFEE
:1004A00070BC704737B500F50045AB18B3F5801F39
:1004B000144611D848B9836A5A69B2F5004F04D975
:1004C0001869019100F0EDFA01992246284603B01F
:1004D000BDE83040FFF7B4BF03B030BD7FB5034681
:1004E000D0B16D460D4A02F110062C4610685168D5
:1004F000083203C4B2422546F7D15A1E0DF10F014E
:100500000F3311F8010912F8014F844204D19A42C5
:10051000F7D1012004B070BD0020FBE740250000AA
:10052000036913F0FE0F0CBF01200020704738B59F
:1005300004460D46FFF7D2FF48B16369012B09D18C
:100540002046FFF7EDFF08B1A3692B6038BD0120FD
:100550002C60FBE70020F9E72DE9F0410368044631
:1005600003F16043B3F5C03F4FF00000A0B029D8BD
:10057000826A636816699E4224D8B3F5801F21D829
:10058000656B06F14003AB4268D8B5F5801F65D8AE
:100590002846FFF7A3FF002860D02846FFF7C0FFDA
:1005A00080B16B6973B1022B0FD1AB69C4F1040147
:1005B00019444FF0FF32204601F046FA284BC31A87
:1005C0005842584120B0BDE8F08140F2046328460B
:1005D0000493FFF783FF08B90020F3E72846FFF7ED
:1005E0009FFF0028F8D00027D7F834804046FFF757
:1005F00075FF0028F0D0403EB045EDD8284605A94B
:10060000FFF795FF0028E7D0BA6A059B12699A4266
:10061000E2D89C42E0D8B3F5801FDDD806A801F0EF
:10062000D3FA059A2146121B06A801F0D7FA06A8AC
:1006300001F0D6FA059C01F0D7FA039001F0ECFA2C
:1006400021460090039B04F1200206A801F042FA23
:1006500004900498B0FA80F04009B3E70120B1E7B4
:10066000E320BBDE70B54FF0FF3290B005460C467C
:1006700001F0EAF9194B98422DD11C22002101A862
:1006800001F041FF164B29466846009301F027FD13
:100690002146684601F023FD684601F029FDFFF779
:1006A000C6FE0646B8B940F2022000F0C1F91C228D
:1006B000314609A801F027FF0A4B294608A80893EC
:1006C00001F00DFD08A8214601F009FD08A801F080
:1006D0000FFDFFF7ACFE002010B070BDE320BBDEC5
:1006E00001000543010006434FF0FF3310B58CB005
:1006F0001C220021044605A8009301F004FF0D4BC5
:10070000CDF804D00493012302930B4B04A801A954
:10071000039301F0DAFC04A801F0EAFCFFF787FE7E
:1007200030B9009BA3422CBF002001200CB010BDAB
:100730000020FBE7000008430400002030B5044619
:1007400091B01C22002101A801F0DDFE114B2146D1
:100750006846009301F0C3FC684601F0C9FCFFF74E
:1007600066FE054698B940F2022000F061F91C22AD
:10077000294609A801F0C7FE074B08A8214608939F
:1007800001F0ADFC08A801F0B3FCFFF750FE00201B
:1007900011B030BD00000243000003430020704749
:1007A000002070474FF4017000F04EB913B501A856
:1007B00001F0E2FC2D4A936DDB0313D4536B23F459
:1007C000FF0323F4FE4343F4BC1343F4A0635363D9
:1007D000136B23F4704343F440431363136B43F4EC
:1007E000E06313639DF80530012B0FD19DF80430B1
:1007F00063B94FF000531B681D4B1B681D4B1B68F2
:100800001D4B1B681D4B1B681D4B1B681D4AD2F8F6
:10081000803043F00303C2F88030FFF7BFFF00F0E1
:10082000F5F8FFF7E1FCFFF7E1FC18B14FF40170B8
:1008300000F00AF9FFF710FD0446FFF7F7FD1CB1C1
:1008400040F203739C4203D140F2012000F0FCF817
:10085000A4F20574012C94BF40F203204FF4017000
:1008600000F0F2F8002002B010BD00BF00C0004050
:10087000004000200080002000C000200000012077
:10088000004001200080004013B501244FF04023B8
:100890008DF806408DF80740D3F894305B060BD5F1
:1008A00000F0E6F8A0F2022080B2072804D804FA8B
:1008B00000F010F0C90F02D100F016FB20B10023A8
:1008C0008DF806308DF807304FF480435B680133B4
:1008D00008D14FF4027000F0ABF800238DF8063019
:1008E0008DF807309DF8073063B14FF48040FFF773
:1008F00033FE8DF806009DF806301BB94FF40270E8
:1009000000F096F89DF8063063B14FF48043064A34
:1009100093601846016881F3088881F3098840686C
:100920008746FEE702B010BD00ED00E0B1F50A7F9A
:1009300010B5044610D34FF40A72002101F0E3FD14
:10094000002304F5D872637004F5A47104F12C003F
:10095000BDE8104000F028BC40F2052010BD13B5E2
:100960000446009101462C3000F056FCC4F82402E5
:1009700018B141F20703984209D1A3784BB140F274
:10098000032040F20223E278002A08BF184602B092
:1009900010BD40F20120FAE72DE9F04387B00DF1D8
:1009A000080904460E4617460021102248461D46F7
:1009B000DDF8388001F0A7FD00211C22C8F80010E6
:1009C000284601F0A0FD32463B462146CDF8009076
:1009D00004F12C0000F020FC23789A0744BF6268E1
:1009E000C8F80020DB0705D51C22284604F10801C1
:1009F00001F07CFD237840F20640002B18BF002058
:100A000007B0BDE8F0834FF40A7070474FF0005311
:100A10004CF23C325A8070474FF000534AF6C030D7
:100A20005B8823F00F039BB21B1A58425841704752
:100A30004FF0005208B51080FFF7EEFF10B94FF2EB
:100A40000F03538008BD000008B5FFF7F1FFBFF3A7
:100A50004F8F0549054BCA6802F4E0621343CB602F
:100A6000BFF34F8F00BFFDE700ED00E00400FA0583
:100A70004FF000534FF20F015A888A4201D1188873
:100A800070473AB91B8840F20220012B18BF4FF47F
:100A9000007070474FF4007070474FF00053188893
:100AA000704708B501F070FAB0FA80F0400908BD4F
:100AB000072B10B5044618460FD862B142EA04036A
:100AC0009B070AD113460A46214601F081FAB0FA83
:100AD00080F0400910BD0120FCE70020FAE700008B
:100AE0001FB500F0BDF94FF47A23B0FBF3F00A4BC9
:100AF0000E2218600021684601F005FD01238DF8E3
:100B0000003040F2FF3369460448ADF8023001F08E
:100B100048FB05B05DF804FB801000200080044015
:100B200030B50D4D0D4A2D68536A15FB00F010FAD3
:100B300083F09CB280B2A0422CBF00240124084B59
:100B40001880084B1C7011B1536A8342FCD10123F9
:100B500005494B61936130BD801000200080044046
:100B60007C1000207E10002000A00440094B0A4A9F
:100B70005869127800F001000AB108B9704738B915
:100B8000586A064B1B88984234BF002001207047EA
:100B900001207047008004407E1000207C1000205F
:100BA0002DE9F0410126DFF82C81424BD8F80020D6
:100BB000414F02F13C01996002F124037B627B60AA
:100BC00002F580535E6040F6AA630024536141F24F
:100BD00005033A4D3A4802F500519460D465D3605C
:100BE0001461D461D4648864C5F8AC45C5F8C445C3
:100BF000C5F8BC45C5F8B445C5F8B845D360936899
:100C0000936000F02DF92F4B05211A6F4FF4E1137B
:100C1000C2F380223244B0FBF2F202F5E14252010B
:100C2000B2FBF3F2284B203A03EAC202D8F80030B4
:100C30002046DA613346042201F03CF9334632465D
:100C40000621204601F036F91423C5F8AC354FF4DF
:100C5000A0230422C5F8C4354FF4C0231146C5F8BB
:100C6000BC350320334601F025F90522D8F80030C1
:100C70004FF480215A614FF0F053144A566093604C
:100C8000134B546294631464546519600231146602
:100C9000D465176759600321A3F50053C2F890404B
:100CA000C2F88C4059630223966402F580521361A6
:100CB000BDE8F081401000200010002000C003407B
:100CC000FFFF010000800040F8FF7F0000000440AB
:100CD0000040044050100020084B586B10F00200F8
:100CE00006D002229A6203F5005301205A6370472E
:100CF000DB6A9B07FBD40222014BF6E700000440AD
:100D0000002004407F2938B50446154624D8FFF753
:100D1000E3FF20B32046134B621890420DD1124BD3
:100D200001391A8861F30E121A80104AC2F8A030F5
:100D30000223936435B9002038BD10F8014B03F845
:100D4000014BEAE7FFF7C8FF0028FBD0084B1A6801
:100D500093699B06FCD5EEE741F20310ECE741F204
:100D60000620E9E78812002040100020000004401F
:100D7000501000200E4BD86E40F2011398420FD055
:100D800040F2022398420DD00A4BC01A0A4B1B684E
:100D900083420AD02ABFC3F50073C01AC018704737
:100DA0000020F3E74FF48070F0E70020704700BFA9
:100DB0000000044084100020841200202DE9F84334
:100DC000089F04460D461646F3B9FFF7D3FFA84225
:100DD00028BF284600214FF001084FF002091D4AA4
:100DE000DFF878E013681C4F04EB000C64451DD15C
:100DF00001B1136006B1306041F20423A84234BF50
:100E000018460020BDE8F8832FB1FFF769FE0021E6
:100E10003846FFF785FEFFF7ADFFA842D5D2002F79
:100E2000F9D0FFF7A3FE0028F5D0CEE71EF8031097
:100E30000133B3F5007F04F8011B04D10023C7F888
:100E400010900121D2E7B3F5807F08BFC7F810806A
:100E5000F7E700BF84120020001004408410002037
:100E600030B51A4B87B001AA03F110051446186873
:100E70005968083303C4AB422246F7D11B7823706C
:100E8000134B1B6F03F00703032B1BD0114A93680E
:100E9000C3F30443102B17D806A90B4413F8143CD2
:100EA0000D480E4943438B4203D19268C2F301625D
:100EB000D340074A106FC0F301300130B3FBF0F0AC
:100EC00007B030BD064BF4E7064BF2E7D42500002F
:100ED000008000400000014040420F0000093D003A
:100EE00000F04902C0EA210113B5012304220221C6
:100EF000032000F0DFFF00230093009B632B1ADD2B
:100F0000022201231146032000F0D4FF00230193A5
:100F1000019BB3F5FA7F11DB0A4B0022D3F8A44002
:100F200002210123032000F0C5FF6FEA940000F0C6
:100F3000010002B010BD009B0133DDE7019B0133CE
:100F4000E5E700BF00C00340002070470020704765
:100F500070B5D1E90152AA4205D290F840302B4435
:100F60009B1A402B10D9002012E00A6890F84040EC
:100F7000D65C90F841200133224402F03F02013454
:100F800086548B6080F840408B689D42EDD80120EC
:100F900070BD2DE9F8431D461746D1E901329B1A71
:100FA00090F84020044613449D420E469DF8209040
:100FB0009DF8248056D9FFF7CBFF00285CD114237D
:100FC00041F2020084F84630BDE8F88394F84120ED
:100FD000A25CFA5494F841200133013202F03F023E
:100FE00084F8412094F84020013A84F8402094F895
:100FF00040200AB19D42E9D1D6E90121914201D2B6
:101000009D4231D89D42DAD129463846D4F888200D
:1010100000F01AFDC4F88800B9F1000F04D02A4688
:101020003946E06C00F0DAFDB8F1000F08D094F812
:1010300043308BB12B463A463946A06C00F038FD60
:1010400094F8433043B1E36DA26D2B449342E365C2
:1010500024BF002384F84330636D41F203002B4426
:101060006365B1E70023C2E73268525CFA54B268A4
:1010700001330132B260BFE70020A5E77FB500234E
:10108000CDE90033082315460DEB03020446FFF7B4
:1010900080FF41F203039842064626D194F843307C
:1010A00063B10822E06C0DEB020100F097FD08230C
:1010B0000DEB03021146A06C00F0FAFC039A029BB0
:1010C0006A6094F843202B605AB9094A934208D0C9
:1010D000084A934205D00822E06C0DEB020100F0B3
:1010E0007DFD6B68236500236365304604B070BDE9
:1010F000F70A0AF7FC0404FC2DE9F7430446586894
:101100000D4617469846002848D011F0030348D1F1
:101110009B6A216E1B6902EB010C1E1D66451CD8E3
:101120001C33994219D28E42304638BF08469C453E
:1011300094BFC0EB0C02C0EB0302411AC6F1680673
:1011400005EB0109304449462044019201F0CEF9F3
:10115000FF214846019A01F0D6F948F20406236EB1
:10116000B34211D848F20702F91891420CD9F61A85
:101170002E440422314604F1800001F0B7F9042224
:10118000FF21304601F0BFF9D8E900363A46206E1B
:101190002946B0470020226E3A44226603B0BDE8DB
:1011A000F08341F20200F9E7F8B503F020030025CF
:1011B00080F842304FF0FF3304460F461646C0F821
:1011C00088301822FF21C0E91855A0F8405080F857
:1011D0004350A0F8445080F84650683001F093F92D
:1011E0000422FF2104F1800001F08DF90422FF2187
:1011F00004F1840001F087F988222946C4E91276B7
:1012000004F1900001F07FF984F8185116B1E06CF8
:1012100000F0DAFC0020F8BD2DE9F04FA7B0CDE9D1
:1012200013230293002304460E46309DDFF8A0935B
:101230001593159A029B9A4201D30020C7E094F8B7
:101240004630142BF6D8DFE813F06700AE00A80094
:10125000520039002E004A02390042023900FC01D6
:10126000390042029603F90315008C013D033D034A
:10127000CF02F9034FF00008636D0F2B00F291804D
:101280000127102316AA2046CDF80480009713A941
:10129000FFF77FFE41F203030990099A9A4200F09A
:1012A0005281099B44E00127D4E91432934200F2B1
:1012B0005E8184F8467041F2030339E04FF0FF0B82
:1012C000D4E91437BB426CD9DB1BDDE91472BF1AB9
:1012D00094F84020032B174440F20582032F00F2BC
:1012E0000582204613A9FFF733FE002320E00127E3
:1012F000636D072BDFD8082316AA2046CDE90077B7
:1013000013A9FFF746FE41F203030C900C9A9A4290
:1013100000F0AC810C9B0BE016AA204613A9FFF746
:10132000ADFE41F203020690069B934202D0069B5B
:10133000059345E0179A1699226500226265994A3D
:10134000914240F09E81022284F84620F0E701237A
:1013500016AA009320460823019713A9FFF719FE48
:1013600041F203030790079A9A4201D0079BDFE7F7
:10137000169B03F07F43B3F1407F05D0142384F81C
:10138000463041F20903D3E7179BD90706D594F8F5
:10139000423043F0010384F842300027636D072B8D
:1013A000D5D9012398E1204616AA13A9FFF766FEB6
:1013B00041F203030890089F9F420BD0089F0597B6
:1013C00041F20303059A9A423FF433AF059827B0E0
:1013D000BDE8F08F94F84420169B2AB1724A9342DC
:1013E00040F087800D2336E094F84220D20741D5A3
:1013F00094F84320002A3DD16C498B4233D022D847
:101400006B4A934275D014D86A4A934200F08880A0
:1014100004D8644A93426CD04B456AD0142316A872
:1014200084F84630FFF790FD002865D141F20807A7
:10143000C5E7614A934279D0F0D8604A934258D0C8
:101440005F4A9342E9E7584A9342CBD006D85D4AB7
:101450009342E3D10F2384F84630B0E75A4A9342CF
:1014600047D05A4AEDE7102384F84630236DC4E98B
:101470001632A4E7524A93424AD02BD84C4A9342A0
:1014800044D022D84B453FD04A4A934244D016A874
:10149000FFF75AFD00284BD01323169884F84630E6
:1014A000C4F88C00FFF752FD94F842309B0686D5B5
:1014B000002884D04368002B81D0204698470890AC
:1014C000089B002B3FF47BAF16E03C4A9342DED1F1
:1014D0000323C0E73C4A93421CD010D8364A9342BB
:1014E00020D0314A9342D2D194F84330002B3FF4BC
:1014F00079AF142384F8463041F201075FE7334A9D
:101500009342C4D10823A6E70A23A4E70523A2E750
:101510000623A0E70C239EE794F84330002BE8D184
:10152000112398E794F84330002BE2D1122392E77D
:10153000142384F8463094F84330002B3FF476AF00
:1015400041F204073BE7D4F848A000F07DFB80237C
:101550000221CDE9000317AA3B46504600F088FA65
:101560008AE6012384F8433084F8463061E616AAFF
:101570002046CDE9007713A9FFF70BFD41F20303E5
:101580000A900A9A9A4201D00A9BD1E61C2216A917
:1015900006F1080000F0AAFF337843F0010333702E
:1015A00082E600BFEB17A603FC0404FCF90707F969
:1015B000F40A0AF4F30B0BF3F70A0AF7F50909F535
:1015C000F60808F6FA0606FAFD0303FDFE0101FE21
:1015D000EB17A65E337843F004033370199BB362B4
:1015E00073785F072AD5EB238DF8583017238DF8D1
:1015F0005930A6238DF85A305E23042204F150019D
:1016000004F184008DF85B3000F070FF002094F846
:101610004530606643F0020384F84530EF686FB1EF
:1016200004222B6816A9B8470822606E2B68EF6861
:1016300018A91044B847636E103363660B2384F80F
:101640004630636D072B3FF636AE012318AACDE96D
:1016500000332046082313A9FFF79BFC41F2030344
:101660000B900B9A9A42B5D00B9B61E63378179A90
:1016700043F002033370169B7360236D083B736263
:101680002AB1142384F8463041F2010350E60423C2
:1016900084F8463094F84530626643F0010384F8DC
:1016A000453025E6042316AA2046CDE9007713A984
:1016B000FFF76FFC41F203030D900D9A9A4201D09F
:1016C0000D9B35E6236D042B02D9169B236601275B
:1016D000636D032BE6D9092384F84630EBE500233C
:1016E0006366072340E79F42FFF4FBAD402B28BF12
:1016F00040239F4228BF1F460123032F88BF27F0A6
:1017000003070DF158084246CDE9003320463B4619
:1017100013A9FFF73EFC41F203030E900E9A9A4282
:1017200001D00E9B04E694F84620072A27D1D5F86D
:1017300008A0BAF1000F22D02B683A464146606EED
:10174000D047636E3B446366BAE508F803B00133E3
:10175000032BFAD9042FC7F1040A88BF4FF0000AFF
:10176000092ABA440DD12B46524641462046FFF77E
:10177000C3FC0E900E9B002B3FF4A2ADD1E73B467D
:10178000E6E7042A25D1737898077FF599ADEB68D1
:10179000002B3FF495AD636E042B10D80AEB0301C8
:1017A00006290CD917AFFF1A394604F184000392B9
:1017B00000F09CFEFF213846039A00F0A4FEEF687B
:1017C000524641462B68606EB847676E574467665D
:1017D00076E50B2A7FF474AD737859077FF570AD09
:1017E000EF68002FECD16BE594F8427017F02007FA
:1017F00007D0D4F88C00FFF7A9FB074600283FF478
:1018000043AF4FF0010A42E04BB347B33B6933B3F8
:1018100020469847DDE9143294F840809B1A4344EF
:101820008342FFF45EADD4E91421A2EB0108B8F1C4
:10183000400F28BF4FF04008984528BF984616AA89
:1018400043462046CDE900AA13A9FFF7A2FB41F2C7
:1018500003030F900F9A9A4203D00F9B68E5012073
:10186000D8E794F842309A0611D5002F3FF40CAF18
:10187000D7F808B0BBF1000F3FF406AF2B46424645
:10188000204616A9D8470F900F9B002BE5D1D4E92D
:10189000142194F84230914203F02003B4D3002B7A
:1018A0003FF47FAD002F3FF47CADFB68002B3FF48D
:1018B00078AD2946204698470F900F9B002B3FF4A8
:1018C00070ADCAE700218A6A496B1269403A9142B9
:1018D0003FF6DAAE112B0FD194F81831002B7FF4BC
:1018E00060AD41F206031093109A9A4202D114237C
:1018F00084F84630109B1BE594F84430002B7FF4AD
:1019000050ADCDE9003316AA4023204613A9FFF7B6
:1019100040FB41F203031090109A9A42EAD1E06C26
:1019200000F05EF994F81831A3B104F1B403E06C4F
:1019300000931EAA04F1940316A900F0CBF81090AE
:10194000109B9BB10023F370142384F8463041F2BE
:101950000603EDE4E76C00F047F9039000F05CF952
:10196000039B00901EAA384616A9E6E70123F370F0
:1019700084F8443015E5002316AACDE9003320464B
:10198000042313A9FFF705FB41F203031190119AF9
:101990009A4202D0119B059318E5D4F88820294B70
:1019A0009A4205D0142384F8463041F20503F2E749
:1019B0000123F37094F845309B0707D0EF682FB1EF
:1019C00004222B68104604F18401B847236E73B3D8
:1019D0006B6863B34FF0FF3304F18001042212A857
:1019E0001293029100F072FD30B1D5E90037042264
:1019F00048F204000299B84704F1680904224946F4
:101A000012A800F063FD90B100239B6A1422D3F862
:101A1000108004F16C0108F10800D5E90037B847DF
:101A2000D5E900370422494608EB0200B8470123F4
:101A3000B3700E2384F846300023ACE741F2070070
:101A4000C5E400BFE320BBDE30B501240025074B11
:101A500001445C609D601A61DC60884201D1586A73
:101A600030BD10F8012B1A62F7E700BF0080084074
:101A7000F7B5044620301D460F461646019000F08B
:101A8000E1FBDDE90812019800F0E0FB00230C22E5
:101A90006364314684F8587004F1590000F026FD63
:101AA0002B0C6DBA84F86530A4F8665003B0F0BD15
:101AB0001FB50C46194600F14803CDE901420093D9
:101AC00000F1440200F15803203000F03BFC04B068
:101AD00010BD00002DE9F04399B00E4615461C4696
:101AE0000746DDF88090002861D000295FD0002AE9
:101AF0005DD0002B58D02F4B2F4AB9F1000F14BFE7
:101B0000984690461C22002111A800F0FCFC2B4BAB
:101B1000414610A8109300F0E2FA202110A800F02E
:101B2000DEFA0122264B019402920393CDF8109025
:101B30000592069354B1B9F1000F07D001A910A87E
:101B400000F0B9FA04A910A800F0B5FA0797012728
:101B50001B4C07A910A80897099400F0ACFA0AA931
:101B600010A80A960B970C940D950E970F9400F001
:101B7000A2FA0DA910A800F09EFA10A800F0B8FA79
:101B8000104B00934FF098435A6CD202FCD55B6D1A
:101B900040F2046003F470230093009B002B08BF05
:101BA000002019B0BDE8F083DFF80C80AAE740F20E
:101BB0000160F6E71F2400801F24FC84000001065A
:101BC000200000207856341210B5044600F0EEF8DC
:101BD0002046BDE81040002100F0ECB800F0EFB85E
:101BE000014600F0F9B8000000B591B00023402292
:101BF00069464FF4807000F099FAB0F5A02F07D035
:101C0000B0F5302F034818BF002011B05DF804FB79
:101C10000048FAE74CE30F0000B591B000234022E2
:101C200069464FF4807000F081FAB0F5A02F07D01C
:101C3000B0F5302F034818BF002011B05DF804FB49
:101C40000048FAE76CE30F000048704786E20F0097
:101C50002DE9F34799460A9B0C46196805463F292A
:101C6000164642D85A68002A41D0224A002E14BF94
:101C7000B046904601F03F07091928BF5A6819601D
:101C800024BF01325A60AFB1C7F1400AA24521D842
:101C90002946524609EB070000F028FC0123414683
:101CA00000934A463346002000F09EF8B046403C80
:101CB00055443C443F2C0CD9A3092A460093414685
:101CC0003346002000F090F824F03F031D4404F058
:101CD0003F0400272CB12246294609EB070000F0FB
:101CE00005FC002002B0BDE8F0879046C2E7DFF8AF
:101CF0000480BFE7E525000030B4054608461146DC
:101D00001A46DDE9023425B931B1029430BCFFF73F
:101D10009FBF024830BC70470846FBE780AFFFFF1B
:101D20002DE9F0431546146887B09946E3008DF815
:101D30000F30630956688DF80E30630B8DF80D3047
:101D4000630D8DF80C30F30003EB54738DF80B30FA
:101D500004F03F047309372C8DF80A304FEA5633EC
:101D600094BFC4F13802C4F1780207468846CDE931
:101D700000158DF809300C490346760D00208DF8CA
:101D80000860FFF7B9FF082143463A460DEB010012
:101D90000095FFF75DFF20223946484600F0A6FB7C
:101DA000002007B0BDE8F08305260000682200216E
:101DB00000F0A9BB0023C0E900331846704707B5FF
:101DC00000F128030190009300F108030020FFF7C1
:101DD00093FF03B05DF804FB02460B4600F12801B7
:101DE0000830FFF79DBF0000F0B593B00E461746D0
:101DF0000446202200210AA81D4600F084FB012091
:101E00004FF00052019702900392049605900692BB
:101E1000079508900992002C2FD1189C184BA4010B
:101E200021460AA80A9300F05AF903990AA80C431C
:101E30000394069B04A943F020030693099B43F0F7
:101E40002003099300F037F901A90AA800F033F93B
:101E500007A90AA800F039F90AA800F049F94FF0DB
:101E600098435A6CD202FCD55B6D13F4702F0CBFF3
:101E700000206FF06F0013B0F0BD6FF07100FAE753
:101E800000040103EFF3108072B6704700B962B628
:101E9000704770B5054614460E46FFF7F3FF2968F4
:101EA00081EA040202EA06044C402C60BDE870405E
:101EB000FFF7ECBFF8B504460D461F4616464AB17B
:101EC00001238B403021184A01FB0022F7B141F277
:101ED000100153503023072D4FF00F0104FB03F383
:101EE00017D8A80006FA00F2814010481844FFF7FE
:101EF000D0FF56B9012130230B4801FA05F503FB49
:101F0000040077B141F21003C550F8BD42F2100150
:101F1000DFE7A5F10800800006FA00F281400448DE
:101F2000E4E742F21003EFE700C0034004C00340BF
:101F30000CC00340F0B5114A114C124E00F00105DF
:101F4000E3695F0713D40DB9334213D103EA0007E5
:101F50008F4207D10B4A1A40002A14BF6FF00100CC
:101F60000020F0BD013AEBD16FF00200F9E74FF02D
:101F7000FF30F6E76FF00100F3E700BF80969800AE
:101F8000000003400200010038B541F67133012220
:101F90000C4C0021E569E3630B4B05F48035DA60F6
:101FA0000223606121202361FFF7C4FF10B92120C3
:101FB000FFF7C0FF0122054BDA600DB10023E36398
:101FC00038BD00BF00000340001003400020034064
:101FD0002DE9F04F06464FF4502501202A4CDFF83A
:101FE000B4C041F67137CCF8040044F826503025CF
:101FF0000024DFF8A4E0DFF8A49005FB06E5EC651B
:102000002C662C67214CDFF898A0D4F81C80E7637D
:10201000E76800FA06F60743E7604BB9E26818F490
:10202000803F22F00102E26000D0E363184628E01E
:1020300001F5005000EA0900401A984228BF1846EE
:102040006161D4F81CB087081BF0040F17D1013F61
:102050003F0147F060576F66AA66C5F86CA0CCF8E0
:102060002460DEF834703E42FBD0094F01447E63A9
:102070000427CCF82860024427611B1ACDE74FF0F3
:10208000FF30BDE8F08F00BF004004400000034077
:1020900000200440001004400000044000E0FFFF66
:1020A000180003404FF098435A6CD202FCD5586D8B
:1020B00000F470207047436813B9416070475B6853
:1020C0005A68012AFBD159607047836813B981604F
:1020D00070475B685A68012AFBD159607047C36931
:1020E000032B9FBF00EB83020133D160C3617047B4
:1020F000C369042B15D84FF09842116CC902FCD566
:1021000004339B0013650168103B116041680C307B
:10211000116050F8041C034411604FF0984298423B
:1021200000D1704750F8041B1160F8E7F0B507467E
:102130000F4D10488DB0002B08BF05460E461446C3
:1021400000211C2205A800F0DEF9012304A801A942
:102150003D4344F000540196049502930394FFF725
:10216000B4FFFFF7C5FFFFF79DFF0DB0F0BD00BF47
:1021700001000AFF010008FF054B5B69C3F38512EC
:10218000827003F03F021B0B42700370704700BF68
:1021900000C00740036BDA0702D503695B06F9D478
:1021A000704710B5FFF7F6FF012200F500531A63E0
:1021B0000B79044648881B0243EA8043487A03436C
:1021C0004878002814BF402000200343887A002864
:1021D00014BF802000200343C87A002814BF2020A9
:1021E00000200343087B002814BF10200020034375
:1021F000487B002814BF082000200343887900286A
:1022000014BF4FF4803000200343636004F5805313
:102210001A630A780AB90223E36000236362C8796B
:102220000B7A497943EA8003002914BF1021002169
:102230000B43A3600AB10123E36010BD0020704787
:10224000002070472422002100F05DB970B51546CA
:102250000E4624220021044600F055F925F04003E3
:10226000802B02D0B5F5807F08D12046314640F85A
:10227000045BEA0800F03AF9002070BD6FF01F001F
:10228000FBE700002DE9F04104681E4624F04003FE
:10229000802B05468846174692B002D0B4F5807F61
:1022A00043D11C2200210BA800F02DF9224A234B18
:1022B0000121B8F1010F18BF13460A932B1D01939A
:1022C000E4081F4B44F0005402910AA803940497B9
:1022D000059106930796089101A90993FFF7EBFE74
:1022E00004A90AA8FFF7E7FE07A90AA8FFF7EDFE71
:1022F00029680AA8C908FFF7F2FE10210AA8FFF70B
:10230000EEFEFFF79BFF98B90AA8FFF7F1FE4FF02A
:1023100098435A6CD202FCD55C6DFFF791FF04F430
:102320007024204612B0BDE8F0816FF07100F9E72B
:102330004FF0FF30F6E700BF000101040001000488
:10234000100000202DE9F04F9BB0074689469846C3
:102350001646DDF894B072B115683B6823F0400270
:10236000802A03D0B3F5807F40F0A6800BEB0903F1
:10237000002400930DE01546EFE795B1249A1BF871
:102380000430525D01355340269A05F00F05135570
:1023900001344C45F1D3002E00F0918000203560CF
:1023A00067E0A9EB040ABAF10F0F57D91C2229469E
:1023B00013A800F0A8F8434B3A6812933B1D03930F
:1023C0000123D20842F00052049305923E4A269916
:1023D000CDF818802AF00F0A07930892CDF82480D0
:1023E0000A930B920BEB04020C9221444AF0005228
:1023F0000D9312A80E920F9103A910931192FFF75B
:102400005AFE06A912A8FFF756FE0CA912A8FFF75C
:1024100052FE0FA912A8FFF758FE09A912A8FFF74C
:1024200054FE396812A8C908FFF759FE514612A890
:10243000FFF755FEFFF702FFC8B912A8FFF758FED5
:102440004FF098435A6CD202FCD55B6D544403F4B0
:1024500070230193FFF7F4FE019B5BBB269B0BEB04
:10246000040A1C44009B9A4506D14C4691E74FF064
:10247000FF301BB0BDE8F08F8DB9424601213846D0
:10248000249BFFF7FFFE0028F3D108F1100212F899
:10249000013D0133DBB213700BB99045F7D1249A9B
:1024A0001AF8013B525D0135534004F8013B05F039
:1024B0000F05D7E71846DCE76FF01F00D9E7304675
:1024C000D7E700BF030300041000002001390244D5
:1024D00010B5904201D1002005E0037811F8014FBA
:1024E000A34201D0181B10BD0130F2E70A44431E7D
:1024F000914200D1704710B511F8014B914203F899
:10250000014FF9D110BD02440346934200D17047F8
:1025100003F8011BF9E70000F8B500BFF8BC08BCE0
:102520009E467047F8B500BFF8BC08BC9E46704791
:10253000000000008504000000000000A504000069
:10254000B814B6F1E0CFF3ADB7DD25C9FA79B7130A
:102550000000000007B0CD5E010000000100000295
:10256000AC2600000040000000001000F000100049
:102570009D070000A1070000590500002D0900007B
:102580005F0900000000000099090000070A000030
:102590000000000013B779FAC925DDB7ADF3CFE02D
:1025A000F1B614B80101000000000000A8260000E8
:1025B00040000000010000020000000000000000D8
:1025C000000000000000000000000000000000000B
:1025D000000000000400000700000D1013001A2086
:1025E00026303840506A09E667BB67AE853C6EF31B
:1025F00072A54FF53A510E527F9B05688C1F83D907
:10260000AB5BE0CD1980000000000000000000007E
:1026100000000000000000000000000000000000BA
:1026200000000000000000000000000000000000AA
:10263000000000000000000000000000000000009A
:102640000000000000000000F00F10030000000078
:1026500084100020130000000900000000010000A9
:102660000202000013000000F00F10030000000041
:102670008411002013000000090000000002000087
:1026800001010000D3FFFFFFF07F1030881200200F
:102690000000000000000000008005402100000054
:1026A0005901000035010000FFFFFFFFFFFFFFFFA2
:1026B000FFFFFFFFFFFFFFFFFFFFFFFFFFFFFFFF2A
:1026C000FFFFFFFFFFFFFFFFFFFFFFFFFFFFFFFF1A
:1026D000FFFFFFFFFFFFFFFFFFFFFFFFFFFFFFFF0A
:1026E000FFFFFFFFFFFFFFFFFFFFFFFFFFFFFFFFFA
:10400000C00A00201D4E00001B4E00001B4E000089
:10401000D97C00001B4E00001B4E00001B4E000010
:104020001B4E00001B4E00001B4E00001B4E0000EC
:104030001B4E0000385203008D4200001B4E000052
:104040001B4E00001B4E00001B4E00001B4E0000CC
:104050001B4E00001B4E00001B4E00001B4E0000BC
:104060001B4E00001B4E0000558B0000DD4400007D
:104070001B4E00001B4E00001B4E00001B4E00009C
:104080001B4E00001B4E00001B4E00001B4E00008C
:104090001B4E0000E55300001B4E00001B4E0000AD
:1040A0001B4E000009550000E95400001B4E0000A3
:1040B0001B4E00001B4E00001B4E0000C54A0300B3
:1040C000694A0300654A0300BD420300C14A030078
:1040D0006D4A0300854A0300714A0300852B0300E3
:1040E000054B03001B4E00001B4E00001B4E000042
:1040F0001B4E00005D7B00001B4E00001B4E0000AD
:104100001B4E00001B4E00001B4E00001B4E00000B
:104110001B4E00001B4E00001B4E00001B4E0000FB
:104120001B4E00001B4E00001B4E00001B4E0000EB
:104130001B4E000010B5054C237833B9044B13B166
:10414000044800E000BF0123237010BD880F002049
:1041500000000000EC81030008B5034B1BB10349CC
:10416000034800E000BF08BD000000008C0F0020E5
:10417000EC810300A3F5803A704700BF174B002B7A
:1041800008BF134B9D46FFF7F5FF00218B460F46F6
:104190001348144A121A30F012FF0E4B002B00D0B5
:1041A00098470D4B002B00D09847002000210400B9
:1041B0000D000D48002802D00C4800E000BF30F090
:1041C00093FE2000290000F035F830F079FE00BFA2
:1041D000000008000000000000000000C00A0020ED
:1041E000880F0020BC370020000000000000000005
:1041F0007047704738B543780446012B05D0022B31
:104200000BD000220120114603E00246002012F8E4
:10421000011BBDE8384000F02FBA054615F8011B18
:1042200000202A4600F028FA29462078BDE83840C8
:1042300000F025BA08B504F0AAFCFFF7D9FF04F096
:10424000B3FCFFF7D6FF03F0AFFEF8E708B508F0C0
:104250000BFF0AF0E0FB11F07FF80DF06CF911F0A4
:10426000E5FEBDE808400AF0D3BD10B5044621F0D4
:1042700035FE21F0B1FF15F08DFD1FF0DFF816F0CF
:1042800033FB6079BDE8104008F034BB08F066BD30
:1042900008B50748FFF7E9FF054808F0F9FA04F008
:1042A0008FFC044808F024FBBDE8084016F0A6BBCC
:1042B000E8510300B051030000B5C3B008F058FC4A
:1042C00008F081FC48B100F011FA30B101A822F0E9
:1042D0002BF810B901A800F0D5F943B05DF804FB44
:1042E00000F08FBD08B50421002002F035FA04214A
:1042F000062002F031FA0721084602F02DFA0721C4
:10430000082002F029FA07211C2002F025FA0721D3
:10431000242002F021FA0721252002F01DFA0020B6
:1043200008BD000007B501A802F022FF254A936DE1
:10433000DB0313D4536B23F4FF0323F4FE4343F452
:10434000BC1343F4A0635363136B23F4704343F42F
:1043500040431363136B43F4E06313639DF805302C
:10436000012B0FD19DF8043063B94FF000531B6847
:10437000154B1B68154B1B68154B1B68154B1B68B1
:10438000154B1B68154AD2F8803043F00303C2F87E
:10439000803003F0F1F900F03FFD03F08DF903F0F8
:1043A00009FA03F091F903F0CDF9FFF79BFF03F051
:1043B00072F900F02FFD01F0B7F803B05DF804EBDF
:1043C00003F01CBD00C00040004000200080002021
:1043D00000C00020000001200040012000800040BB
:1043E00008B501F057F8BDE8084000F083B808B5FB
:1043F00000F005FD04F0E4F803F0DEF906F046FEF7
:10440000BDE8084003F0BEBB08B503F011F903F0A6
:104410001BF903F031F9BDE80840FFF739BF08B5D3
:1044200000F064FABDE8084000F0B0B8704700F052
:10443000A5BCFFF741BF00F0B9B8012070470120CB
:10444000704710B508F000FC044600F0B7F90028EA
:1044500008BF002400F0C2FC002808BF0024FFF7BA
:10446000ECFF002814BF2046002010BD38B503F033
:104470008BFE044608F0F6FB042825D002284FF0F6
:10448000000508BF012400F0B1F904281ED002285D
:1044900008BF012400F098FC042819D0022808BFA6
:1044A000012401F0DFFD042814D0022808BF0124F4
:1044B000FFF7C5FF04280FD0022808BF0124002DF4
:1044C00018BF0024204638BD0125DCE70125E1E7BF
:1044D0000125E6E70125EBE70024F3E700F0CCBA7D
:1044E00018B1034B1860002070472520704700BFAB
:1044F000FC0F002010B5054C0549206801F07AFB3F
:104500002068BDE81040FFF7EBBF00BFE40A0020C1
:10451000C00A0020014B1868704700BFFC0F002044
:1045200038B502F098FB084D04462846002130F8C3
:10453000022B30F044FD002320462B8085F8023406
:10454000BDE8384002F08DBB0210002038B502F003
:1045500082FB084D04464FF48062A81C002130F015
:104560002EFD002320462B8085F80234BDE838401C
:1045700002F077BB3C140020002208B511464A2007
:1045800020F0F6FCBDE80840FFF7CABF08B5FFF70A
:10459000C7FFFFF7DBFF00F005FA0022014B1A709E
:1045A00008BD00BF00100020012070472C4970B5E5
:1045B00091F802342B4C3BB32B4E337823BB94F849
:1045C00002343BBBD1F80200284A81F8023420F4BF
:1045D0007F4323F0070393422FD18A7942B3881D8A
:1045E000FFF708FE21F0CEF80546FFF799FF0123FB
:1045F00028683370030203F4E063C0F30720184314
:104600002946043000F0B2F994F8023433B3164B63
:104610001B781BBB0023012284F80234124B208834
:1046200013491A7000F0A2F9BDE87040FFF78EBF81
:104630001146012020F0A0FFD4E70E4A934209D191
:104640008B791BB1881D00F0D9F8CBE7012020F051
:10465000A5FFC7E7063121F00DF9C3E770BD00BF24
:10466000021000203C140020001000202000FF0059
:104670003E1400202000FF0180B220F07DBF20F01A
:1046800085BF0000F8B50546006820F47F4020F0A3
:10469000070000F015F928BB2846FFF785FF08B38F
:1046A0002A68114E140204F4E064C2F30722144392
:1046B00002F0D1FA33880434C3F58062944207468D
:1046C0000BD802332246F018294630F051FC012362
:1046D000328886F80234144434803846BDE8F84005
:1046E00002F0BFBAF8BD00BF3C140020084A13888E
:1046F000C3F58063984208D892F802342BB9054B71
:1047000093F8020480F0010070470020704700BF5A
:104710003C140020021000200022014B1A70704748
:1047200000100020F0B50D46044685B000B1FEE74C
:10473000039202F090FA1E4F06463888AAB2C0F5DE
:1047400080639A42039918D80230384430F010FC44
:104750003988294489B20329398018D9D7F8022029
:104760000124130203F4E063C2F30722134304336A
:104770008B4202D887F802440224304602F071FAD4
:10478000022C06D10B4800F033FA70B1FEE7012489
:10479000F3E7012C09D100234FF4FA71064A0548CA
:1047A000009300F03FFA00B1FEE705B0F0BD00BF96
:1047B000021000200814002079450000084B93F8EF
:1047C000020450B9074B93F802341BB9064B187812
:1047D00080F0010000F0010070470020FAE700BF00
:1047E000021000203C1400200010002008B5FFF744
:1047F000E5FF002814BF0120042008BDF8B5437868
:104800000278012B14D0022B2BD063BB052A2AD1AE
:10481000294C2278082A4AD02849D0F802000D46AF
:10482000DEB2B24224D845F822000132227016E0EE
:10483000052A18D1204D2B78002B3AD01F4C00228E
:104840002146D0F8026054F8047BD0B2BE421FD19A
:104850000024013B41F822402B7098420FDB0020DE
:1048600002E0012A1AD00120BDE8F84020F096BEEF
:1048700051F8046B0133B042D2D12E20F4E7421C30
:1048800051F8225041F8205041F82240D0B2E4E7DC
:104890000132D0B29842D6D32D20E5E72022002164
:1048A000064830F08CFB0020034B1870DCE71C201E
:1048B000DAE71B20D8E700BF60180020401800206E
:1048C00010B5084B084A1C780023D9B28C4201D895
:1048D000002010BD52F8041B01338842F5D101209D
:1048E000F7E700BF601800204018002038B54FF4EB
:1048F00082720021174830F062FB4FF4827200216F
:10490000154830F05CFBFFF705FE144A0368144DB0
:104910009342286008D002F58042934215D0A2F558
:104920000042934213D0FEE70D230E4A0F2013706E
:1049300001F0B4FD2B680446186802F0BDFCB4FB1E
:10494000F0F0094B8000186038BD0F23EDE70B2312
:10495000EBE700BF621800206C19002000C0054082
:10496000701A00206118002068190020B0F5827FBD
:1049700007B5024600D9FEE70190074830F0F8FA83
:104980000648074B019A0449006801F035FB00B165
:10499000FEE703B05DF804FB6C190020701A0020DC
:1049A000114A000008B5144B93F90030002B0CDBC2
:1049B000012203F01F015B099B0003F160438A4061
:1049C00003F56143C3F880211A600C4B0C4A186848
:1049D0000C4903685A6603F500529164DA6C0A497F
:1049E00042F42042DA644FF48272084B01F068FA14
:1049F00000B1FEE708BD00BF61180020701A00205A
:104A0000FF002400FFFF010062180020554A00004B
:104A1000F8B506460C4600250C4F304601F02AF842
:104A2000830605D43A68ABB29A4205F10105F4D881
:104A3000201E18BF0120FFF76FFEBDE8F8404FF4BD
:104A400082720021024830F0BABA00BF6819002013
:104A50006C190020084608B50038194618BF012017
:104A6000FFF760FEBDE808404FF482720021014864
:104A700030F0A5BA621800202DE9F8434F4C2368A6
:104A80001B689B6C1B0440F1968002F0E4F82468DC
:104A9000054623685A6E22F4E0225A665A6E42F4A2
:104AA00080225A664FF4004203F500539A6402F0E4
:104AB000D2F8636A06469B889BB243B902F0D1F8EC
:104AC000FFF770FF2846BDE8F84302F0CAB8E06877
:104AD00000F01EFC0023D4F8248084F82C3002F06F
:104AE000BAF8B8F804309BB2002BE7D01427B8F816
:104AF000029002F0B6F81FFA89F907FB09F909F1EB
:104B000010014144E06800F04BFC2D4BC844C8F84C
:104B10001830D4F82480B8F804309BB293B994F8D4
:104B20003130032B0CD042F2AC52042123795B01CB
:104B300003F1804303F570339950022223685A61D0
:104B40003046BBE702F087F8B8F804901FFA89F9FD
:104B5000B9F1000F04D102F084F8D9F80C30FFDE6F
:104B6000B8F80290B8F80230B8F806209BB20133CA
:104B7000B3FBF2F102FB11339BB2A8F80230B8F894
:104B800004301FFA89F9013B9BB2A8F8043007FBF7
:104B9000098802F066F8D8F81490B9F1000FB8D07F
:104BA000D8F80C20D8F810300021D31A2046D8F8B5
:104BB0000820C847ADE7BDE8F88300BF701A0020A1
:104BC000097000F0002209490B684BB1834204D1FF
:104BD000436A4AB15362012070471A465B6AF4E7A0
:104BE0000028F5D0184670470B60F4E7741A0020CF
:104BF00010B5044690B103F01DFD2046FFF7E2FF1B
:104C000058B194F8280040B102F025F8044A13681E
:104C1000013B136002F025F8002010BD2220FCE7C4
:104C2000781A00202DE9F04F85B005469146984648
:104C30000E469DF8387009B9002F64D12846FFF759
:104C4000D7FF044600283CD185F82800286303F0EC
:104C500019FE864239D903F0F1FD40F2E7318C4666
:104C60002146E6FB00C14FF47A72604600232FF024
:104C70008FFF4FF0FF32002383468A462FF088FFD4
:104C80004FF0FF3268860023584651462FF080FFD0
:104C90002B46CDE9004411461C4A284603F065FD29
:104CA000044670B91A4AC5E90798136885F829704F
:104CB000EE6233B31A465B6A002BFBD155620023C8
:104CC0006B62204605B0BDE8F08F304603A957B1AE
:104CD00003F0BAFD04460028F3D12B46CDE90000CD
:104CE0000A4A0399D9E703F0AFFD04460028E8D14A
:104CF0002B462846CDE90077044A039903F012FDBC
:104D0000CEE71560DBE72124DBE700BF154D00008F
:104D1000741A002091F8283013B50C4683B90B8E15
:104D20004A8E93420ED243B9CDE9003320460B465A
:104D3000104A4FF0FF3103F0BFFC238E013323866E
:104D400002B010BD52B191F829307BB1012300931C
:104D5000D1E907232046C96AFFF764FF0123064A09
:104D600084F82830136801331360E9E7084603F03C
:104D700061FCF3E7154D0000781A002070B5104D66
:104D80002B681BB100260F4B1C6804B970BD94F84A
:104D9000283093B101F05FFF2B6884F82860013B55
:104DA0002B6001F05EFF94F8293013B92046FFF71D
:104DB00009FFD4E9073120469847646AE5E700BF58
:104DC000781A0020741A0020034B1B68002B0CBFBC
:104DD00001200420704700BF781A0020024B186899
:104DE000B0FA80F040097047781A0020042208B514
:104DF00011460123032001F0FDFF002008BDFFF74D
:104E0000F5BF042208B511460023032001F0F2FF8C
:104E1000002008BDFFF764BA7047FEE708B500F050
:104E200013F8064B064A07498B4201D3FFF7A6F950
:104E300052F8040B43F8040BF6E700BFC00A002049
:104E4000F4810300880F0020044B054A9A60D3F8D0
:104E5000882042F47002C3F88820704700ED00E01B
:104E600000400000014B1868704700BFEC0B0020A9
:104E7000014B1860704700BFEC0B0020084B1B6F04
:104E800003F00703022B04D0032B05D0012B05D020
:104E9000FEE7044B18687047034BFBE70348704775
:104EA00000800040EC0B0020F00B0020002D3101B1
:104EB00008B5FFF7E3FF054B1B6FC3F30133013365
:104EC000B0FBF3F0024B186008BD00BF008000404B
:104ED000E80B00200048704700B4C404014B186878
:104EE000704700BFF00B0020054B1860054B1B6F8F
:104EF00003F00703032B01D1FFF7DABF704700BFB0
:104F0000F00B0020008000400020704700487047F0
:104F1000002D3101174B9868C0F304400C2822D8AB
:104F2000DFE800F0092121212121071719211B1D8C
:104F30001F00114870479B6803F04073B3F1807FF6
:104F400013D0B3F1007F12D00C4A002B08BF1046DB
:104F500070470B4870470B4870470B4870470B4829
:104F600070470B487047002070470A4870470A484E
:104F7000704700BF0040014A405DC60000093D0087
:104F80000024F400C0EA210180BA8C010048E80145
:104F9000005A620280841E0040420F004FF400401D
:104FA00070474FF47A707047014B1868704700BF24
:104FB000F40B002000230360704703680B6001605E
:104FC0007047000005490A681318054883428CBFE2
:104FD0004FF0FF320B601046704700BFF80B002007
:104FE000008001202DE9F04F9A46564B85B01B7882
:104FF00006460F461546DDF83C909DF844B0DDF8B6
:105000005080002B00F08D80072A00F28C800E9BD0
:10501000002B00F08880B9F1000F00F08480129B13
:10502000B3F5006F7FDC012802D1109B002B7AD0F2
:10503000454B03EB05131B7B002B76D0434C102212
:10504000002168462FF0BBFF04EB45141022002F0F
:1050500059D1394620462FF0B2FF43F21003638046
:10506000BBF1000F03D1E37843F00303E370374A49
:105070000E9B02EB451CCCE90193129B6901013B9D
:10508000C3F30A009DF84C30012E03F003034FEAEE
:10509000836343EA001E53582D48CDF800A000EA70
:1050A00003004EEA0003535041D113230CF1100EBC
:1050B000CCF80C309CE80F008EE80F006FF0030175
:1050C000DCF81C20109B61F39F02012FCCF81C2000
:1050D000CCF8143003D1CCF81890CCF80430002769
:1050E000194A290102EB051342F80180159A284656
:1050F0005A60694622469F605E7301F0F3FE3846AF
:1051000005B0BDE8F08F002120462FF058FF4FF486
:1051100044736380BBF1000FA9D1E37843F03003FF
:10512000A4E70C48ECE70C48EAE70C48E8E7B8F1DC
:10513000000FD4D19CF8023068F304138CF80230CD
:10514000CDE700BFFC1B00207C1A0020FC1A0020C9
:105150000F80FFF3028000F0018000F0078000F074
:1051600038B5124B05461B78DBB1E0B101F073FD99
:105170000F4A00231146147B54B92B6001251A01F4
:1051800001EB03131D738C5001F06BFD204638BDFD
:105190000133082B02F11002EDD101F062FD054848
:1051A000F5E70548F3E70548F1E700BFFC1B0020E1
:1051B0007C1A0020048000F0028000F0018000F0E2
:1051C000154B13B51868002301908DF8043001F0D9
:1051D00042FD124B1C7824B101F043FD104802B08F
:1051E00010BD01221A7001F03CFD0E4B01A81C738A
:1051F0001C7783F82C4083F83C4083F84C4083F8BC
:105200005C4083F86C4083F87C4008238DF80730BD
:1052100001F03EFE2046E2E778520300FC1B00202E
:10522000038000F07C1A002010B588B00E9C00921C
:1052300007940D9C024606949DF8304005940B9C03
:1052400004949DF8284003940024CDE901342046BD
:105250000B462146FFF7C6FE08B010BD10B588B05A
:105260000E9C009207940D9C024606949DF83040D7
:1052700005940B9C04949DF8284003940024CDE9E8
:10528000013420460B460121FFF7ACFE08B010BDEB
:105290000A4A08B512785AB107280BD8084A02EB17
:1052A00000131B7B43B1002101F0E4FD002008BD89
:1052B0000448FCE70448FAE70448F8E7FC1B002030
:1052C0007C1A0020028000F0018000F0078000F0CE
:1052D0000A4A08B512785AB107280BD8084A02EBD7
:1052E00000131B7B43B1012101F0C4FD002008BD68
:1052F0000448FCE70448FAE70448F8E7FC1B0020F0
:105300007C1A0020028000F0018000F0078000F08D
:105310000A4A08B5127852B107280AD8084A02EB9F
:1053200000131B7B3BB101F02BFE002008BD05489C
:10533000FCE70548FAE70548F8E700BFFC1B00203A
:105340007C1A0020028000F0018000F0078000F04D
:105350000D4B1B7893B1072812D889B10B4B03EB87
:1053600000131B7B73B10A4BDA6A012303FA00F0C6
:1053700010401ABF00200B70087070470548704736
:105380000548704705487047FC1B00207C1A002028
:1053900000000440028000F0018000F0078000F06F
:1053A0000B4A10B512780C4662B107280CD859B1D7
:1053B000084A02EB00131B7B43B101F0F3FD2060B0
:1053C000002010BD0448FCE70448FAE70448F8E769
:1053D000FC1B00207C1A0020028000F0018000F0FD
:1053E000078000F02DE9F843174B1F6D5B6D1F40E0
:1053F00000D5FEE701260025144CDFF85480DFF8C5
:105400005490374217D02368C8F850609BB1A16808
:10541000284601316268A1609847637B012B0AD15D
:1054200048B909EB45131A7B60F341021A731A7FDE
:1054300060F341021A770135082D4FEA460604F160
:105440001004DED1BDE8F883000004407C1A00207F
:1054500000200440FC1A002070B5044601250C4EC3
:1054600004B970BD94FAA4F3B3FA83F305FA03F216
:1054700006EB031124EA02044A68002AF0D0D8B2ED
:105480000B7B13B189689047EAE79047E8E700BFD4
:10549000001C002008B5192001F0E6FB28B14FF0F0
:1054A0000072074BC3F880211A601A2001F0DCFB60
:1054B00028B14FF08062024BC3F880211A6008BD0A
:1054C00000E100E038B505460C4601F0C4FB0022BF
:1054D000044B03EB05135C601A73BDE8384001F020
:1054E000C0BB00BF001C0020064BD3F82404D3F837
:1054F000202403F50053104000F05530C3F8200479
:10550000FFF7AABF00C00340064BD3F82404D3F82A
:10551000202403F50053104000F0AA30C3F8200403
:10552000FFF79ABF00C00340024B1968024B18688E
:1055300027F04ABD000C0020FC0B00207047000043
:1055400037B5920004460D4601922FF029FE431C08
:105550000BD060B929462046019A2FF0F9FC0028AB
:10556000044808BF002003B030BD0348FBE70348F0
:10557000F9E700BF10E000F021E000F024E000F0C7
:1055800013B5044601A801F0F3FD9DF80630012291
:1055900023804FF4807300206380054B9B680A339F
:1055A00003F01F0302FA03F3636002B010BD00BFF3
:1055B0000080E00F01F020BD08B501F011FD0020D2
:1055C00008BD10B5044644EA010313F0030308467E
:1055D00009D1934201D1002010BD54F8231040F8A6
:1055E00023100133F5E7214692002FF0C1FCF2E7CA
:1055F00010B504462FF0CCFD431C15D0B0B90C4BB0
:1056000020469B680A3303F01F020123934023F0D6
:1056100003032344984201D1002010BD50F8042B0D
:105620000132F7D00348F8E70348F6E70348F4E708
:105630000080E00F0EE000F021E000F024E000F038
:1056400008B501F001FB014B186008BD9024002053
:10565000014B186801F0FCBA902400200A46013979
:10566000014402F0E9BA042203685A619A69920778
:10567000FCD541F2AC52102103795B0103F1804368
:1056800003F5703399507047012203685A619A6993
:10569000D207FCD541F2AC52042103795B0103F13E
:1056A000804303F5703399507047000038B141B121
:1056B000013AB2F5006F044838BF00207047034834
:1056C00070470148704700BF037000F0027000F09F
:1056D00038B504460D4601F0BEFAA3889BB223B943
:1056E0002B6001F0BEFA064838BD142263889BB2D5
:1056F00002FB034408342C6001F0B3FA0020F3E706
:105700000B7000F0F7B504461646019101F0A3FABC
:10571000A388E2889BB29A420546019906D80023E5
:10572000336001F09EFA124803B0F0BD14272088C0
:105730003A4680B207FB004008302FF019FC23885E
:10574000E2889BB207FB0343083333602388284673
:105750009BB20133B3FBF2F102FB11339BB2238006
:10576000A38801339BB2A38001F07BFA0020DBE722
:105770000A7000F010B5006801F09EFD044630B1DB
:1057800003F05CF824235843B0FBF4F401342046C2
:1057900010BD000090F83130022B0BD13023427F36
:1057A00090F821005A43044B9B5823FA00F000F074
:1057B000010070470020704714C00340002313B558
:1057C0001D4A52F8044B94F8211081420ED0013347
:1057D000042BF6D102B010BD0028FBD19DF8073094
:1057E000002BF7D0A068FFF753FDF3E794F83130B2
:1057F000022BEFD12046FFF7CDFF637E2076022BF0
:10580000E8D194F82E3003F0FF02002BE2D1A0681B
:105810000DF107018DF80720FFF79AFD237E1BB1DC
:1058200094F82F30002BD7D00023A06884F82F30B5
:10583000FFF74EFDCEE700BF4425002070B50546BA
:1058400001F009FA6C6B0646013C6C634CB901F03F
:10585000FBF905462146012002F000FB284601F035
:10586000F7F93046BDE8704001F0FBB90B6837B579
:105870009D690C4615F02005084606D0FFF7DEFFAF
:10588000022384F8383003B030BDFFF773FF23469E
:105890000146CDE90055034A04F13C0002F042FF05
:1058A000F1E700BF6D58000070B5044601F0D3F970
:1058B000636B05464BB901F0C7F90121064608465E
:1058C00002F0CCFA304601F0C3F9636B284601338D
:1058D0006363BDE8704001F0C4B90000F0B5012673
:1058E00090F8327004460D4689B080F82C609FB95C
:1058F000036824330793FFF7D7FF094A079BCDE9D5
:1059000002726A686169CDE90062E0682A680494FD
:10591000FFF7A4FC09B0F0BD002380F82C30F9E7B4
:10592000195F000001232DE9F04180F82D3090F837
:10593000323004460D4688B07BBB064656F83C7BA9
:1059400001F089F90DF11F01804630463C3702F025
:10595000CDFE40B99DF81F302BB1304602F06AFEF3
:105960002046FFF76BFF0126404601F07AF92046FA
:1059700084F83860FFF798FF0A4B3A4603930023F8
:1059800002936B682169CDE90063A0682B680494D9
:10599000FFF74AFC08B0BDE8F081002380F82D3005
:1059A000F8E700BFF159000038B504460D4601F094
:1059B00052F9A3889BB223B92B60BDE8384001F0AF
:1059C00050B9142263889BB202FB034308332B6057
:1059D0006388E2889BB20133B3FBF2F102FB11331F
:1059E0009BB26380A388013B9BB2A380E5E70000E4
:1059F000F0B585B0906A03A91446FFF769FE064624
:105A00002046FFF7B7FE002501462346CDE90055A5
:105A1000164A04F13C0002F085FE154B9E421FD051
:105A2000039B1D619D6001F016F9039A0646D76835
:105A300027B1D2E9002329462046B847A06A03A926
:105A4000FFF7B2FFA06A83889BB263B103A9FFF797
:105A50003FFE20460399FFF765FF304601F001F94C
:105A6000012005B0F0BD84F82D30F6E76D58000038
:105A70000B7000F00368986970472DE9F041044607
:105A80009046FFF713FE0E46074690BB152001F027
:105A9000F9F80546A26A93889BB213B194F82E30A8
:105AA00053B394F8323023B923689D6915F0020589
:105AB00003D12046FFF7D7FD0025012384F83030BD
:105AC00094F8323033B9B0444645206819D183691F
:105AD0009B06FCD56DB942F2AC52102123792F46BA
:105AE0005B0103F1804303F570339950082223686A
:105AF0005A613846BDE8F081002DCCD0FFF772FC2A
:105B0000C8E716F8011B01F0AFFCDDE710B504464D
:105B100080B190F82E302BB9FFF73CFE10B9A06889
:105B2000FFF7B6FB002094F82E300133DBB284F887
:105B30002E3010BD0048FCE7027000F010B504469E
:105B4000A0B190F82E309BB190F82E30012B05D1EA
:105B5000FFF720FE10B9A068FFF7BAFB002094F809
:105B60002E30013BDBB284F82E3010BD0148FCE73B
:105B70000148FAE7027000F0057000F037B590F8C0
:105B800031500446022D1DD1012290F82230457E6D
:105B9000817F9A403020164B25B900FB013342F239
:105BA000100105E0012D07D100FB013341F2100186
:105BB0005A50002003B030BD247E00FB0133002C7E
:105BC000F4D1ECE7012DF4D1037E73B911238DF8E4
:105BD0000730FFF79BFF2A4620460DF10701FFF72C
:105BE0004CFF2046FFF7AAFFE3E71323EFE700BFD0
:105BF00000C00340F0B50446A34F8BB003AE0D4682
:105C00000FCF0FC697E8070086E807001CB99F4C26
:105C100020460BB0F0BD0DB99D4CF9E7582200218C
:105C200020462FF0CCF900239A4963630A789A4BF7
:105C30002AB9C3E90022C3E9022201220A70964967
:105C40000022084650F8046BB4420AD00132042AFC
:105C5000F8D1002251F8040B002840F0D58043F819
:105C600022402B7D84F831300023286884F83230BC
:105C700020602B7B2371012384F83830874B9842B6
:105C800040F0C780212384F82330854B23614FF4F3
:105C9000802300266361D5E907236262168056805F
:105CA000968084F82C60A3621E805E809E806B6864
:105CB00084F82D600593EB8984F82F60ADF81C30D3
:105CC0002B8A03A9ADF81A30AB7C8DF80C608DF8E7
:105CD0001830EB7C8DF81E3005238DF8193001F05B
:105CE00041FB14212A7B6F4B03EB4217C7F8AC151D
:105CF000287AA97A2E3240EA014C03EB4213C3F80A
:105D000004C06A7AEB7A42EA034CC7F8BCC5E07675
:105D1000E177227784F820306B7D04226377AB7DB6
:105D200084F82130EB7DA3772B7E84F82230012389
:105D300001F060F80123022294F82010207F01F086
:105D400059F894F83130022B7AD13346012294F875
:105D50002110607F01F04EF83346042294F822109F
:105D6000A07F01F047F8012394F82120CDE900330A
:105D70001146607F00F0FAFF00F06DFF2B7D0646B4
:105D8000032B6ED141F2AC5202212B7B5B0103F15C
:105D9000804303F57033995004212A6802F580523C
:105DA000D165297EEA7D42EA014241F2B8515A505A
:105DB000A97D6A7D42EA014241F2B4515A504FF046
:105DC000FF32286800F500539A642B7D032B0CBF2B
:105DD0000521042101F080FA4FF440622B685A61DA
:105DE000FFF7EEF9002104F10800FFF7B9F90146C9
:105DF00028B904F10C00FFF7B3F9044600B12A4CAE
:105E0000304600F02EFF03E70132042A7FF422AF70
:105E1000FDE6264B984207D1222384F82330244BF9
:105E200023614FF4A02334E7224B98427FF4F4AE71
:105E3000232384F82330204B23614FF4C02328E729
:105E4000032B99D1334694F82110607F012200F092
:105E5000D1FF3346042294F82210A07F00F0CAFF3D
:105E60008AE7022BABD194F821001449FFF72AFBF3
:105E7000FFF710FB4FF40073238300232046A37623
:105E8000FFF77CFE9BE700BFA0520300027000F00A
:105E9000037000F0542500204425002000800540B8
:105EA0000200040000C003400E7000F000C0054076
:105EB000020005000000064002000600BD57000079
:105EC000F0B587B005461646FFF7F0FB0446E8B983
:105ED0000493104BCDE901166A46686A01A903963E
:105EE0000593FFF70FFC044680B995F82C306BB989
:105EF0002846FFF7C9FB0099FFF7F0FC95F8313011
:105F0000032B03D028462C76FFF738FE204607B037
:105F1000F0BD00BF017000F073B5506A01A91446CE
:105F2000FFF7D6FB05462046FFF788FC2F4B9D4226
:105F300030D094F83200019A002839D12368996C46
:105F400011F4007129D02A49906011614FF4007258
:105F500003F500539A6400F07EFE01990646CD6871
:105F600035B14A688B682046D31A0A680969A84780
:105F7000606A01A9FFF718FD606A8588ADB2DDB1DE
:105F800001A9FFF7A5FB20460199FFF7A7FC3046C2
:105F900000F067FE012002B070BD986CC00507D507
:105FA00014489160106103F500534FF48072D1E7FB
:105FB000002313619360CEE7012320462376FFF789
:105FC000DDFD94F8313084F82C50032BDFD042F201
:105FD000AC52042123795B0103F1804303F5703354
:105FE0009950022223685A61D1E700BF0B7000F07C
:105FF0000D7000F00C7000F0F0B587B00446164646
:10600000FFF754FB054638BB0493154B03960593E5
:106010002368CDE901169B699B0702D42046FFF750
:1060200022FB6A46A06A01A9FFF76CFB054698B9F6
:1060300094F82D3083B900F00EFEA36A06469B88C3
:106040009BB233B120460099FFF76CFC012384F822
:106050003030304600F005FE284607B0F0BD00BFE6
:10606000017000F00B4B30B51B788BB10120002381
:106070000546094951F8042B32B192F83840022CF8
:1060800004BF204682F838500133042BF2D130BDD2
:106090000120FCE754250020442500202E4B984287
:1060A0004AD022D82D4B984240D014D82C4B98423D
:1060B00039D00AD82B4B984232D02B4B98422FD054
:1060C0002A4B98422CD000207047294B9842FAD195
:1060D000284B186F7047284B98422AD0274B98427C
:1060E000F1D1244BD3F880007047254B98422BD038
:1060F00009D8244B984223D0234B9842E3D11D4B1F
:10610000D3F88C007047214B984221D003F57403DB
:1061100003F510539842D6D1164BD3F89800704728
:10612000144B986D7047134B586E7047114B586F56
:106130007047104B986F70470E4BD3F88400704730
:106140000C4BD3F8880070470A4BD3F89000704787
:10615000084BD3F8940070470048E8010024F4008D
:10616000C0CF6A0080841E0000093D0040420F003D
:10617000405DC6000080E00FC0EA210180BA8C01BA
:10618000007E560380D54302006CDC020090D003F1
:1061900038B5124B0546D3F820310C4603F00703FF
:1061A000013B032B17D8DFE803F0020A0E12FEF7BB
:1061B00059FE042305B1286004B1237038BDFEF7F1
:1061C0008DFE0323F6E7FEF7A5FE0523F2E7FEF7B3
:1061D0009DFE0223EEE700231846EBE70080004017
:1061E00037B50C460021124A0191D2F880210546AC
:1061F00002F00302022A0ED0032A11D0012A14D180
:1062000001A8FFF7C5FF0D230DB1019A2A6004B163
:10621000237003B030BDFEF77DFE05230190F3E748
:10622000FEF774FE02230190EEE70B46ECE700BF99
:106230000080004038B5104B0546D3F840310C467D
:1062400003F00303022B0BD0032B0DD0012B0FD136
:10625000FEF7A4FE082305B1286004B1237038BD01
:10626000FEF7A2FE0723F6E7FEF79BFE0923F2E7FF
:1062700000231846EFE700BF0080004038B5104B00
:106280000546D3F860310C4603F00303022B0BD014
:10629000032B0DD0012B0FD1FEF780FE082305B193
:1062A000286004B1237038BDFEF77EFE0723F6E7B1
:1062B000FEF777FE0923F2E700231846EFE700BF59
:1062C0000080004038B5134B0546D3F800320C4629
:1062D00003F00703013B032B18D8DFE803F0020AA1
:1062E0000E12FEF75BFE082305B1286004B123708F
:1062F00038BDFEF759FE0723F6E7FEF752FE0923E5
:10630000F2E7FEF7D5FD0C23800AEDE700231846DF
:10631000EAE700BF0080004038B5134B0546D3F8CC
:1063200008320C4603F00703013B032B18D8DFE8C3
:1063300003F0020A0E12FEF731FE082305B12860B1
:1063400004B1237038BDFEF72FFE0723F6E7FEF7F2
:1063500028FE0923F2E7FEF7ABFD0C23800AEDE7E8
:1063600000231846EAE700BF0080004038B5104B14
:106370000546D3F840320C4603F00303022B0BD042
:10638000032B0DD0012B0FD1FEF708FE082305B11A
:10639000286004B1237038BDFEF706FE0723F6E738
:1063A000FEF7FFFD0923F2E700231846EFE700BFE1
:1063B0000080004038B5104B0546D3F800310C463C
:1063C00003F00303022B0BD0032B0DD0012B0FD1B5
:1063D000FEF784FD032305B1286004B1237038BDA6
:1063E000FEF7E2FD0723F6E7FEF78EFD0623F2E750
:1063F00001230020EFE700BF0080004041F6713329
:106400000F4A10B5D169D36393680E4C23F440133F
:10641000A04288BF43F4801393600B4A0B4CD2F820
:106420001832A04223F0020388BF43F0020301F4B4
:106430008031C2F8183211B10022014BDA6310BD6D
:1064400000000340C017530200C0074080F0FA026A
:1064500008B5FEF73FFDBDE80840FFF7CFBF0000DD
:10646000032814D005D8012805D0022809D000201F
:1064700005E00F28FBD1084B186FC0F30130013045
:106480007047054BD3F89000C0F30460F7E7024B68
:10649000186FC0F38020F2E7008000401FB5002392
:1064A0000293252817D8DFE800F0131A1D262B3594
:1064B0003A51565B60656A78161A3F1616561A26C8
:1064C0002B26351A5126783A3A3A3A2626265B6028
:1064D000FEF7D4FC0290029805B05DF804FBFEF7CD
:1064E000E7FCF7E7FEF7CAFC02460220FFF7B8FF19
:1064F000B2FBF0F0EEE7FEF7DBFC02460320F5E727
:10650000FEF7D6FC02460320FFF7AAFFB2FBF0F02D
:106510004008DFE7002102A8FFF762FEDBE7002169
:1065200002A8FFF735FED6E703934FF0E0231B697F
:106530005B0705D5FEF7BCFC0390039B0293CAE7FB
:106540000DF1070103A8FFF775FEF6E7002102A889
:10655000FFF770FEBFE7002102A8FFF78FFEBAE742
:10656000002102A8FFF7AEFEB5E7002102A8FFF761
:10657000D3FEB0E7002102A8FFF71CFFABE7094BF1
:10658000D3F8803003F00303022BA8D0032B01D0F3
:1065900000209FE7FEF7BEFC9CE7002102A8FFF762
:1065A000E5FE98E70080004008B50120FFF776FF80
:1065B000BDE80840034988428CBF02210121032025
:1065C00000F002B880F0FA02032810B50C4626D07D
:1065D00004D8012804D0022816D010BD0F28FCD101
:1065E000FFF736FF00F026F8114B013C196F21F43C
:1065F000405141EA04341C67FEF75AFCFFF7FEFEE7
:10660000BDE81040FFF7D0BF094B013CD3F8901014
:1066100021F0F85141EA0464C3F89040DDE7044BEF
:10662000013C196F21F4806141EA84241C67D4E79E
:106630000080004002210320FFF7C6BF002307B5FA
:106640008DF80230252822D8DFE800F0132121211F
:10665000212C324C52585E646A7D2121382121520E
:10666000212121212C214C217D3232323221212144
:10667000585E384B1B6F03F00703013B032B06D812
:10668000DFE803F00E020A0C04238DF802309DF8B7
:10669000020003B05DF804FB0323F6E70623F4E7EA
:1066A0000223F2E700200DF10201FFF799FDEEE76A
:1066B00000200DF10201FFF76BFDE8E701934FF0B9
:1066C000E0231B695B0707D5FEF7F2FB0B238DF870
:1066D00003309DF80330D8E70DF1030101A8FFF75F
:1066E000A9FDF6E700200DF10201FFF7A3FDCEE7BB
:1066F00000200DF10201FFF7C1FDC8E700200DF1F8
:106700000201FFF7DFFDC2E700200DF10201FFF7F4
:1067100003FEBCE700200DF10201FFF74BFEB6E7D8
:106720000C4BD3F8803003F00303022B03D0032B70
:1067300005D00023A9E7FEF7BBFB0B23A5E7FEF777
:10674000E9FB0523A1E700200DF10201FFF70EFE92
:106750009DE700BF0080004070B50C46252847D853
:10676000DFE810F0260046004600460046005A00CA
:106770006B009C00AD00BE00CF00E000F100020104
:10678000460046007C0046004600AD00460046003C
:10679000460046005A0046009C00460002016B007D
:1067A0006B006B006B00460046004600BE00CF0049
:1067B0008B1E042B2DD8DFE803F0291C032C2600A8
:1067C00000250226FFF744FEFFF734FF6F4A136FE0
:1067D00023F0070333431367FEF76AFBFFF70EFE50
:1067E000FFF7E2FE25B9032C02D10122684B9A6221
:1067F00070BD0122674B03269D6A03F58053C5F3E4
:1068000040059A62DEE700250426DBE70025012625
:10681000D8E700252E46D5E78C1EE4B20B2C8CBFA2
:1068200000215D4B594A98BF195DD2F8803123F0A1
:1068300003030B43C2F88031DAE78C1EE4B2032C69
:106840008CBF0021554B514A98BF195DD2F82031B9
:1068500023F007030B43C2F82031C9E70B2912D0FC
:106860000ED8CC1F022CC3D84D4A536A43F0010303
:1068700053624FF0E022136923F004031361B7E77A
:106880000E29B5D1F0E7464A536A23F0010353625B
:106890004FF0E022136943F00403EFE7CC1FE4B2AA
:1068A000022C8CBF00213F4B384A98BF195DD2F8AB
:1068B000403123F003030B43C2F8403198E7CC1F6B
:1068C000E4B2022C8CBF0021374B304A98BF195DCF
:1068D000D2F8603123F003030B43C2F8603187E73D
:1068E000CC1FE4B2052C8CBF0021304B274A98BF47
:1068F000195DD2F8003223F007030B43C2F80032CF
:1069000076E7CC1FE4B2052C8CBF0021284B1F4A30
:1069100098BF195DD2F8083223F007030B43C2F881
:10692000083265E7CC1EE4B2042C8CBF0021214B59
:10693000164A98BF195DD2F8003123F003030B43C8
:10694000C2F8003154E705290CD00B2914BF0021EF
:1069500002210E4AD2F8803023F003030B43C2F821
:10696000803045E70321F4E7CC1FE4B2022C8CBF52
:106970000021114B054A98BF195DD2F8403223F02F
:1069800003030B43C2F8403232E700BF00800040EF
:1069900000E0004000C00040BC520300C8520300A9
:1069A00000C00740CC520300CC520300CF5203007A
:1069B000CF520300D5520300CC52030008B5FFF7B5
:1069C0003DFE07280ABF024B4FF6FF70188808BD2E
:1069D000200C002038B50546FFF760FB204B04462D
:1069E0005A68012A04D11F494A609A699207FCD16A
:1069F0000020FFF723FE042803D1FFF729FDFFF74E
:106A000019FE194A24F04073954220D0174A954246
:106A100020D0174AD16811F0060FFBD1906893601F
:106A2000916803F4F81301F4F8118B4215D128464C
:106A3000FEF71EFA0020FFF701FE04280FD1FEF733
:106A400037FAFFF7DBFCBDE83840FFF7ADBD43F098
:106A50000073DEE743F08073DBE79060EAE738BD60
:106A600000C0014000E0014040420F0080841E0051
:106A70000000014070B504460020FFF7DFFD032849
:106A800077D045F60E0302223F49C1F880303F4BD4
:106A90009A62012203F580539A628A6D12F4803261
:106AA000FBD1637820781B0543EA0063A079257C3D
:106AB0000343E078667C43EA0043207943EA0033ED
:106AC000607943EA80130B618B69E07A03F000433D
:106AD0000343E07943EA8063207A43EA0063607A03
:106AE00043EA0043A07A43EA00238B61637B096A8F
:106AF000002B18BF0822207B21F00D0143EA01037F
:106B000043EA800342EA03021F49A37B0A624FEA79
:106B100043132FD1886AE27B20F0330043EA02134B
:106B2000034343F001038B62194B8A6D33EA02027F
:106B3000FBD10222154B9A628B6D5B00FCD44FF0A7
:106B400000420869A37820F4700040EA03500F4B1C
:106B500008619A611DB9022203F580539A6216B941
:106B600001220C4B9A62A37C1BB1074B0A4AC3F863
:106B7000802070BD8A6A22F033023243134343EA15
:106B800045038B62EFE700BF00C0004000D000402B
:106B90000300014000E00040F1A7FFFF014B93F923
:106BA0000000704755250020F0B54FF4D15602275C
:106BB000174A41788478C37805785662154E4F2974
:106BC00077604FF0010728BF4F2106F580567760A8
:106BD0001669F603FCD441EA052151611B01417994
:106BE00043EA04230B43017943EA41039360C379E9
:106BF00081791B0143EA4113417A0B43017A43EA4D
:106C000041035360837A13B16FF4D1535362F0BDE3
:106C10000000024000100240014B1880704700BF86
:106C2000200C00200028ABBF00F16040054B00F5B0
:106C3000614000F00F00ACBF90F80003185C000941
:106C4000704700BF14ED00E0EFF3108072B670479C
:106C500000B962B67047EFF31180302383F31188D7
:106C6000704780F311887047054B420953F8223072
:106C700000F01F0023FA00F0C04300F0010070474D
:106C800000E100E0014608B5EFF31083DB0702D511
:106C90000122104608BDFFF7E7FF02460028F7D1A2
:106CA0000846FFF7BFFF0146EFF3118313B1B0EBC6
:106CB000131FEDD2074B5B68C3F30803002BE8D02A
:106CC000103B58B2FFF7AEFF88428CBF0022012272
:106CD000DFE700BF00ED00E0704770470A4A10B5DB
:106CE0001369044643F00403136101F0E5FAFFF76A
:106CF000F3FF30BFFFF7F1FF01F0F2FA1CB9BDE876
:106D00001040FEF7D5B810BD00ED00E0084A10B500
:106D10001369044643F00403136101F0CDFA30BF58
:106D200001F0DEFA1CB9BDE81040FEF7C1B810BD95
:106D300000ED00E0704770474FF04022D36E0179BC
:106D400023F030030B43D366704770B505461446F5
:106D50000E46FFF779FF296881EA040202EA060479
:106D60004C402C60BDE87040FFF772BF072AF7B5B2
:106D70000D4614461F460FD803219600B14000FA75
:106D800006F215480191FFF7E0FF05F003020199B3
:106D90001248B240FFF7D9FF114B12499DF820006D
:106DA000002F08BF1946012303FA04F40C600E4BB0
:106DB0000E49002808BF0B461C600D4B9DF82400AF
:106DC000C3F820441031A3F6DC33002808BF0B467B
:106DD0001C6003B0F0BD00BF00C4034008C4034002
:106DE00010E4034010D4034014D4034014E40340DF
:106DF00000E00340F8B504460D461F4616464AB16A
:106E000001238B403021184A01FB0022F7B141F2E7
:106E1000100153503023072D4FF00F0104FB03F3F3
:106E200017D8A80006FA00F2814010481844FFF76E
:106E30008CFF56B9012130230B4801FA05F503FBFD
:106E4000040077B141F21003C550F8BD42F21001C1
:106E5000DFE7A5F10800800006FA00F2814004484F
:106E6000E4E742F21003EFE700C0034004C0034030
:106E70000CC00340044A054B002918BF13460122E9
:106E800002FA00F0186070474020044040100440AF
:106E900030B5047845788178C27801200F4B41EAFB
:106EA0000541240658609C609961FF219962002188
:106EB000996319644FF0004159654FF0FF314FF469
:106EC000001003F50053196505491301DBB2C1F841
:106ED000800181F81533086030BD00BF0000044018
:106EE00000E100E02DE9F04101250C46C3B2DFF8D6
:106EF00088E0D1F800809D408F7ACB7A94F80DC05D
:106F0000097BCEF850500EF5005E4EF820804FF011
:106F1000300E184E1B050EFB006043EA074343EAA0
:106F2000415322F00302C0F860C0C3650267FFF757
:106F300092FE736D2B437365237A13B1336C2B432D
:106F40003364637A13B1B36B2B43B3632279A379B0
:106F500043EA0243084A93616179E37943EA0143D2
:106F600006498B61034B55639D64BDE8F041FFF713
:106F700078BE00BF00000440002004400010044020
:106F800010B50124C0B28440FFF765FE044B5A6D72
:106F900022EA04025A659C62BDE81040FFF761BE18
:106FA00000000440F8B50125C3B204469D40FFF738
:106FB00052FE3022094B1E6D5F6B02FB04335C6E88
:106FC000FFF74FFE3D4206D1C4F30A1008B935421F
:106FD00000D10130F8BD0020FCE700BF00000440F4
:106FE00041F67132034BDA63012203F50053DA6094
:106FF000704700BF0000034041F671320121044B8D
:10700000DA6303F50052D1600022DA63704700BFF3
:10701000000003404FF090435A6812B19A6A002A68
:10702000FAD17047CB784A7810B55B010C7843EA07
:1070300082030A79234343EA02130C22424302F1FA
:1070400090421363012C02BF8A78024B43F8202040
:1070500010BD00BFD080034008B54FF090435A6880
:1070600002B960B15B680BB1FFF7D4FF4FF09041FC
:1070700030B10120074B5860FFF7CCFFC86008BD56
:10708000FFF7C8FF0223CB60FFF7C4FF0122024BCA
:107090005A60F4E700100048002000484FF0904389
:1070A0005B6870B50BB1FFF7B5FF0121104B457858
:1070B000596083780679002BC37814BF022400241A
:1070C000002B14BF042200224379DB0043EA06139D
:1070D0002B43234313434FF090429360054B596079
:1070E0000378002B14BF0B460223D36070BD00BF92
:1070F0000020004800100048436813B94160704701
:107100005B685A68012AFBD159607047836813B9DC
:10711000816070475B685A68012AFBD159607047EB
:10712000C369032B9FBF00EB83020133D160C361AE
:107130007047C369042B15D84FF09842116CC902EF
:10714000FCD504339B0013650168103B1160416856
:107150000C30116050F8041C034411604FF0984249
:10716000984200D1704750F8041B1160F8E7000006
:10717000054B5B69C3F38512827003F03F021B0B62
:1071800042700370704700BF00C0074040F6B7323E
:10719000064B5B689BB293429FBF4FF47A72B3FB7E
:1071A000F2F3034AD05C88BF002070470080E00FF4
:1071B000DA5203000D4B984208D1A3F50033C3F80F
:1071C0008411C36D43F08003C3657047084B984238
:1071D00004D1A3F51033C3F89411F2E7054B98429C
:1071E00004BFA3F52033C3F8A411EAE700800540EB
:1071F00000C005400000064070B5054616461C4616
:1072000019B90320FFF74AF90146402C1BD003D8D7
:10721000DCB1202C1BD070BD602CFCD1042303FBFF
:1072200006F2560806EB4113B3FBF2F3094A203B82
:1072300002EAC303AA6822F06002AA60AA681443A3
:10724000AC60EB61E7E70623E9E71023E7E70823F3
:10725000E5E700BFF8FF7F002DE9B841154F15465F
:107260000F40FAB9202B20D0402B20D0002B14BF88
:1072700040241024012307F580775F4300233A461A
:1072800019462DF085FC554300FB04F804FB03511F
:10729000A2FB040400233A4621442DF079FC40442B
:1072A000BDE8B88180240025E4E71C46E2E780249D
:1072B0000323E0E7F8FF7F0070B5044685680320EC
:1072C000FFF7ECF8A36805F00102E16903F0600341
:1072D000BDE87040FFF7C0BF012200F580535A603F
:1072E000CB43934003F00A034361416111B900F5B8
:1072F0000050426070470000012200F5805310B535
:107300005A6040F6AA6341F2050243610023124924
:107310008360C365C26000F500520361C361C3644A
:1073200091640E498365884206D00D4CA04203D07B
:1073300004F58044A0420BD18842036506D0084B77
:10734000984203D003F58043984201D1002343655E
:107350000123536010BD00BFFFFF01000080054006
:1073600000C0054070B50D46FFF7C6FF012300F5CC
:1073700080567360AB7C04461BB1836843F0804346
:107380008360EB7C1BB12046297DFFF713FF2A8A1F
:107390006B7B20461343EA891343E3602B7BD5E9DB
:1073A0000112FFF729FF6B7D1BB1A36843F4803303
:1073B000A360AB7D1BB1A36843F40043A360EB7DE6
:1073C0002A7E1B07120502F4E00203F0E043134398
:1073D000A3656A7E931E012B214B20D89C421AD0B4
:1073E00003F580439C4218D003F580439C420CBFB8
